:100000000C942A000C9447000C94C2010C944700F5
:100010000C9447000C9447000C9447000C94470044
:100020000C9447000C9447000C9447000C94470034
:100030000C9447000C9447000C9447000C94470024
:100040000C9447000C9447000C9447000C94470014
:100050000C94470011241FBECFE5D8E0DEBFCDBF12
:1000600010E0A0E6B0E0EEE7FCE002C005900D92E3
:10007000A239B107D9F710E0A2E9B0E001C01D92A2
:10008000A13AB107E1F70E9466020C943D060C9478
:1000900000004423C9F5882361F42AB381E090E08D
:1000A00002C0880F991F6A95E2F7809582238ABB68
:1000B0000895813061F427B381E090E002C0880F99
:1000C000991F6A95E2F78095822387BB0895823055
:1000D00061F424B381E090E002C0880F991F6A9513
:1000E000E2F78095822384BB0895833009F041C0F4
:1000F00021B381E090E002C0880F991F6A95E2F772
:100100008095822381BB0895413099F5882359F465
:100110002AB381E090E002C0880F991F6A95E2F748
:10012000282B2ABB0895813059F427B381E090E051
:1001300002C0880F991F6A95E2F7282B27BB089504
:10014000823059F424B381E090E002C0880F991FF7
:100150006A95E2F7282B24BB0895833051F421B32C
:1001600081E090E002C0880F991F6A95E2F7282B82
:1001700021BB08954423C9F5882361F42BB381E0A2
:1001800090E002C0880F991F6A95E2F7809582235C
:100190008BBB0895813061F428B381E090E002C008
:1001A000880F991F6A95E2F78095822388BB08958E
:1001B000823061F425B381E090E002C0880F991F7E
:1001C0006A95E2F78095822385BB0895833009F014
:1001D00041C022B381E090E002C0880F991F6A9568
:1001E000E2F78095822382BB0895413099F58823F8
:1001F00059F42BB381E090E002C0880F991F6A95F3
:10020000E2F7282B2BBB0895813059F428B381E005
:1002100090E002C0880F991F6A95E2F7282B28BB4F
:100220000895823059F425B381E090E002C0880F30
:10023000991F6A95E2F7282B25BB0895833051F466
:1002400022B381E090E002C0880F991F6A95E2F71F
:10025000282B22BB0895FA01813049F0813028F023
:10026000823039F08330C1F40EC089B303C086B345
:1002700001C083B390E002C0959587956A95E2F737
:1002800081708083089580B390E002C09595879532
:100290006A95E2F7817080830895662381F488234C
:1002A00011F41ABA0895813011F417BA0895823002
:1002B00011F414BA08958330B9F411BA0895613075
:1002C00099F4882319F48FEF8ABB0895813019F4CB
:1002D0008FEF87BB0895823019F48FEF84BB0895A8
:1002E000833011F48FEF81BB0895882311F46BBB29
:1002F0000895813011F468BB0895823011F465BB14
:100300000895833009F462BB0895FB01882311F43A
:1003100089B307C0813011F486B303C0823019F469
:1003200083B380830895833011F480B3808308956C
:100330004B3251F04C3218F44A32E1F40DC04D32D8
:1003400039F04F32B9F410C09B01280F391F18C083
:100350009C01261B370B14C0689F9001699F300DCC
:10036000789F300D11240CC06115710531F481E0C6
:100370008093950020E030E003C00E94F8059B01C7
:10038000C90108951F920F920FB60F9211242F9357
:100390003F934F935F936F937F938F939F93AF930D
:1003A000BF93EF93FF9380919400882321F5809170
:1003B0009C0090919D006AE070E00E94F8057093A7
:1003C0009D0060939C006091920061506093920048
:1003D00080E00E94BE0580E20E94330580E991E042
:1003E00028EC30E0F9013197F1F70197D9F780E077
:1003F0006091920043C020919300222329F18091C3
:100400009E0090919F000097F9F06AE070E00E94D2
:10041000F80570939F0060939E00622F6150609377
:10042000930081E00E94BE0580E20E94330580E9CE
:1004300091E028EC30E0F9013197F1F70197D9F715
:1004400081E0609193001AC080919E0090919F007E
:10045000892BB1F481E08093990060E00E94BE0591
:1004600080E20E94330580E991E028EC30E0F90158
:100470003197F1F70197D9F781E060E00E94BE055E
:10048000FF91EF91BF91AF919F918F917F916F916C
:100490005F914F913F912F910F900FBE0F901F9042
:1004A000189583E063E040E00E94490083E063E048
:1004B00041E00E94BA008BB780688BBF85B7886027
:1004C00085BF85B78B7F85BF789408951F93CF93A1
:1004D000DF930E9451020E94DC05C8ECD0E011E0DD
:1004E000809196008823F1F010929F0010929E0058
:1004F00080919A0090919B0090939D0080939C0026
:10050000109296000E94BA0580919C0090919D00E7
:100510000E946F0580E991E0FE013197F1F70197A4
:10052000D9F75EC00E9469048093A00010929200E7
:1005300010929F0010929E0010929400809199005A
:10054000882309F040C010929D0010929C003BC08F
:10055000433481F40E94BA0580E991E0FE013197AD
:10056000F1F70197D9F710929D0010929C0010921C
:10057000920025C080919C0090919D009C01E3E039
:10058000220F331FEA95E1F7880F991F280F391FB3
:10059000240F311D2053304030939D0020939C0048
:1005A000842F0E94330580E991E0FE013197F1F735
:1005B0000197D9F7809192008F5F809392000E94FB
:1005C00069048093A0004091A0004B3249F04D3265
:1005D00039F04A3229F04F3219F04D3309F0B8CFD3
:1005E0008091A000809394008D3309F044C08091E5
:1005F0009C0090919D0090939B0080939A000E9494
:10060000BA0580E690E00E945C0581E060E00E940F
:10061000BE0580919A0090919B000E946F0580E931
:1006200091E0FE013197F1F70197D9F70E94690433
:10063000982F8093A00040E050E08F3211F441E009
:1006400050E020E030E09A3211F421E030E0242B39
:10065000352B80E09B3209F481E040E09D3209F4C3
:1006600041E0842B90E0282B392B232B09F02EC15D
:100670000E94BA0535CF81E060E00E94BE0510926D
:10068000930015C081E060E00E94BE058091A0004B
:10069000809394000E94330580E991E0FE01319738
:1006A000F1F70197D9F70E9469048093A000409167
:1006B000A00020E030E04F3211F421E030E080E093
:1006C00090E04A3211F481E090E0282B392B80E051
:1006D0004B3209F481E090E04D3209F491E0892B2E
:1006E00090E0282B392B232B69F6109299008091EA
:1006F00093008F5F8093930081E061E00E94BE05CC
:100700008091A000833409F043C00E94BA0580E9BB
:1007100091E0FE013197F1F70197D9F7E1CE43342B
:1007200061F4109397000E94BA0580E991E0FE0100
:100730003197F1F70197D9F738C080919E009091D9
:100740009F009C0163E0220F331F6A95E1F7880F39
:10075000991F280F391F240F311D2053304030932B
:100760009F0020939E00842F0E94330510939800D1
:10077000809193008F5F8093930080E991E0FE0168
:100780003197F1F70197D9F70E9469048093A0008F
:100790004091A0004B3249F04D3239F04A3229F0F5
:1007A0004F3219F04D3309F0BACF80919900882368
:1007B00009F096CE60919E0070919F0080919C0000
:1007C00090919D00409194000E94980190939B000D
:1007D00080939A00809195008823C1F01092950033
:1007E0000E94BA058EE690E00E945C0581E060E020
:1007F0000E94BE0580E890E00E945C0580E991E0DF
:10080000FE013197F1F70197D9F76ACE80919700F1
:10081000882361F0109297000E94BA0580E991E068
:10082000FE013197F1F70197D9F75ACE8091A000D8
:100830008D3369F50E94BA0580E690E00E945C0560
:1008400081E060E00E94BE0560919E0070919F0073
:1008500080919C0090919D00409194000E9498018D
:100860000E946F0580E991E0FE013197F1F7019751
:10087000D9F70E9469048093A0008B3241F08D3239
:1008800031F08A3221F08F3211F00E94BA05409186
:10089000A00020E030E04F3211F421E030E080E0B1
:1008A00090E04A3211F481E090E0282B392B80E06F
:1008B0004B3209F481E090E04D3209F491E0892B4C
:1008C00090E0282B392B232B09F40ACE10939600A5
:1008D00007CECF92DF92FF920F931F93DF93CF93B8
:1008E0000F92CDB7DEB781E060E040E00E944900A2
:1008F00081E061E040E00E94490081E062E040E088
:100900000E94490081E063E040E00E94490081E0EC
:1009100064E040E00E94490081E064E041E00E9420
:10092000BA0081E065E040E00E94490081E065E0B6
:1009300041E00E94BA0081E066E040E00E94490088
:1009400081E066E041E00E94BA0081E067E040E0BB
:100950000E94490081E067E041E00E94BA0000E0A7
:10096000FF246E010894C11CD11C01C00F2D81E031
:10097000602F41E00E94490081E0602F40E00E942A
:10098000BA0010E019821C5F81E0612FA6010E946D
:100990002B018981612F6350882309F052C08F2D6C
:1009A000880F880F860F883091F1893080F4843069
:1009B00031F1853038F48230E1F08330F0F4813069
:1009C000B9F519C08630F9F08730F8F41AC08C30C8
:1009D00031F18D3028F48A30F1F08B30F0F419C009
:1009E0008E3009F18E30E8F08F30F9F0803101F56A
:1009F0001EC088E31DC087E31BC089E319C08FE2D6
:100A000017C084E315C085E313C086E311C08AE2F2
:100A10000FC081E30DC082E30BC083E309C08DE208
:100A200007C083E405C080E303C08DE301C08BE20F
:100A30000F90CF91DF911F910F91FF90DF90CF909A
:100A40000895162F643009F09DCF81E0602F40E0BB
:100A50000E944900F02EF39483E08F1508F086CFB2
:100A600000E0FF2484CFFF920F931F93F82E83E0C2
:100A700064E041E00E94BA0000ED17E0C801019770
:100A8000F1F783E065E041E00E94BA00C8010197F8
:100A9000F1F782E06F2D0E947501C8010197F1F70F
:100AA00083E065E040E00E94BA00C8010197F1F7D9
:100AB0001F910F91FF9008951F93CF93DF93EC0147
:100AC00010E003C00E9433051F5FFE01E10FF11D1E
:100AD00080818823B9F7DF91CF911F9108950F93FB
:100AE0001F93DF93CF93CDB7DEB760970FB6F8941F
:100AF000DEBF0FBECDBF8E010F5F1F4FB8014AE0B2
:100B000050E00E940C06C8010E945C0560960FB67A
:100B1000F894DEBF0FBECDBFCF91DF911F910F9133
:100B20000895FF920F931F93F82E83E064E040E056
:100B30000E94BA0000ED17E0C8010197F1F783E0C9
:100B400065E041E00E94BA00C8010197F1F782E038
:100B50006F2D0E947501C8010197F1F783E065E0F0
:100B600040E00E94BA00C8010197F1F71F910F9170
:100B7000FF90089581E00E9491050895813039F039
:100B8000813050F0823029F0833031F404C0605C51
:100B900003C0605F01C0605B862F80680E94910582
:100BA00008950F931F938A010E94BE05C8010E94F9
:100BB0005C051F910F91089583E064E041E00E947D
:100BC000490083E065E041E00E94490080E49CE93F
:100BD0000197F1F782E061E00E944D0188E30E94F5
:100BE00091058CE00E94910581E00E949105089595
:100BF000AA1BBB1B51E107C0AA1FBB1FA617B70743
:100C000010F0A61BB70B881F991F5A95A9F780955E
:100C10009095BC01CD010895FB019F01E8944230FD
:100C2000C4F04532B4F44A3029F497FB1EF4909591
:100C300081959F4F642F77270E94F805805D8A3346
:100C40000CF0895D8193CB010097A1F716F45DE26A
:100C500051931082C9010C942D06DC01FC01672F11
:100C600071917723E1F7329704C07C916D93708383
:0E0C70006291AE17BF07C8F30895F894FFCF46
:100C7E0054686520726573756C74203A200044695F
:100C8E00766973696F6E206279207A65726F2100C2
:100C9E00506C656173652C74727920616761696E41
:020CAE002E0016
:00000001FF
